:100000000C9452000C9464000C9464000C946400F2
:100010000C9464000C9464000C9464000C946400D0
:100020000C9464000C9464000C9464000C946400C0
:100030000C9464000C9464000C9464000C946400B0
:100040000C94DC030C9464000C9464000C94640025
:100050000C9464000C9464000C9464000C94640090
:100060000C9464000C94640000000000250028003B
:100070002B0000000000240027002A0004040404D0
:100080000404040402020202020203030303030342
:10009000010204081020408001020408102001021F
:1000A0000408102011241FBECFEFD8E0DEBFCDBF63
:1000B00021E0A0E0B1E001C01D92A231B207E1F75A
:1000C0000E9426040C94B3040C940000CF92DF929B
:1000D000EF92FF920F931F9390910B01292F30E025
:1000E000823009F4AEC1833009F442C2813009F490
:1000F000ECC0EBE2F0E0983040F088EF890FE5E2E9
:10010000F0E0863010F0E8E2F0E01081983008F07E
:100110008CC041E050E060E070E06A017B0104C007
:10012000CC0CDD1CEE1CFF1C9A95D2F7C601812B6E
:1001300080838BE495E00197F1F720910B01EBE2CE
:10014000F0E0283040F088EF820FE5E2F0E0863002
:1001500010F0E8E2F0E03081422F50E0283008F063
:1001600078C081E090E0A0E0B0E004C0880F991F63
:10017000AA1FBB1F2A95D2F78095832380838BEE1D
:100180009FE00197F1F720910B01EBE2F0E02830BE
:1001900040F088EF820FE5E2F0E0863010F0E8E210
:1001A000F0E03081422F50E0283008F066C081E056
:1001B00090E0A0E0B0E004C0880F991FAA1FBB1F09
:1001C0002A95D2F7832B80838BE495E00197F1F792
:1001D00020910B01EBE2F0E0283040F088EF820F35
:1001E000E5E2F0E0863010F0E8E2F0E03081422F06
:1001F00050E0283008F055C081E090E0A0E0B0E089
:1002000004C0880F991FAA1FBB1F2A95D2F780959B
:10021000832380838BEE9FE00197F1F71F910F916D
:10022000FF90EF90DF90CF9008959850963070F443
:100230002850310981E090E0A0E0B0E004C0880FD0
:10024000991FAA1FBB1F2A95D2F771CF2E503109D3
:10025000F1CF2850263070F44850510981E090E0E9
:10026000A0E0B0E004C0880F991FAA1FBB1F4A95E9
:10027000D2F782CF4E505109F1CF2850263070F47A
:100280004850510981E090E0A0E0B0E004C0880F40
:10029000991FAA1FBB1F4A95D2F794CF4E50510900
:1002A000F1CF2850263070F44850510981E090E099
:1002B000A0E0B0E004C0880F991FAA1FBB1F4A9599
:1002C000D2F7A5CF4E505109F1CFEBE2F0E09830D4
:1002D00040F088EF890FE5E2F0E0863010F0E8E2C8
:1002E000F0E01081983008F084C041E050E060E018
:1002F00070E06A017B0104C0CC0CDD1CEE1CFF1C0D
:100300009A95D2F7C601812B80838BEE9FE00197EF
:10031000F1F720910B01EBE2F0E0283040F088EF9C
:10032000820FE5E2F0E0863010F0E8E2F0E03081A4
:10033000422F50E0283008F070C081E090E0A0E04B
:10034000B0E004C0880F991FAA1FBB1F2A95D2F7DF
:100350008095832380838BE495E00197F1F72091CA
:100360000B01EBE2F0E0283040F088EF820FE5E28D
:10037000F0E0863010F0E8E2F0E03081422F50E00B
:10038000283008F0CDC081E090E0A0E0B0E004C0EB
:10039000880F991FAA1FBB1F2A95D2F7832B808332
:1003A0008BEE9FE00197F1F720910B01EBE2F0E07B
:1003B000283040F088EF820FE5E2F0E0863010F060
:1003C000E8E2F0E03081422F50E0283008F0BCC075
:1003D00081E090E0A0E0B0E004C0880F991FAA1F60
:1003E000BB1F2A95D2F78095832380838BE495E009
:1003F00013CF9850963070F42850310981E090E086
:10040000A0E0B0E004C0880F991FAA1FBB1F2A9567
:10041000D2F779CF2E503109F1CF2850263070F421
:100420004850510981E090E0A0E0B0E004C0880F9E
:10043000991FAA1FBB1F4A95D2F78ACF4E50510968
:10044000F1CFEBE2F0E0983040F088EF890FE5E281
:10045000F0E0863010F0E8E2F0E010819830C0F56E
:1004600041E050E060E070E06A017B0104C0CC0C28
:10047000DD1CEE1CFF1C9A95D2F7C601812B8083F0
:100480008BE495E00197F1F720910B01EBE2F0E0AE
:10049000283040F088EF820FE5E2F0E0863010F07F
:1004A000E8E2F0E03081422F50E0283028F581E08A
:1004B00090E0A0E0B0E004C0880F991FAA1FBB1F06
:1004C0002A95D2F78095832380838BEE9FE045CFDA
:1004D0009850963070F42850310981E090E0A0E007
:1004E000B0E004C0880F991FAA1FBB1F2A95D2F73E
:1004F000C5CF2E503109F1CF2850263070F4485026
:10050000510981E090E0A0E0B0E004C0880F991F9D
:10051000AA1FBB1F4A95D2F7D5CF4E505109F1CF34
:100520002850263070F44850510981E090E0A0E056
:10053000B0E004C0880F991FAA1FBB1F4A95D2F7CD
:100540002DCF4E505109F1CF2850263070F448502D
:10055000510981E090E0A0E0B0E004C0880F991F4D
:10056000AA1FBB1F4A95D2F73ECF4E505109F1CF7B
:10057000EBE2F0E0983040F088EF890FE5E2F0E040
:10058000863010F0E8E2F0E040819830C0F501E0FC
:1005900010E020E030E06801790104C0CC0CDD1CE3
:1005A000EE1CFF1C9A95D2F7C601842B80838BE446
:1005B00095E00197F1F720910B01EBE2F0E0283094
:1005C00040F088EF820FE5E2F0E0863010F0E8E2DC
:1005D000F0E03081422F50E0283028F581E090E0B3
:1005E000A0E0B0E004C0880F991FAA1FBB1F2A9586
:1005F000D2F78095832380838BEF99EA0DCE9850B4
:10060000963070F42850310981E090E0A0E0B0E02D
:1006100004C0880F991FAA1FBB1F2A95D2F7C5CF08
:100620002E503109F1CF2850263070F4485051092E
:1006300081E090E0A0E0B0E004C0880F991FAA1FFD
:10064000BB1F4A95D2F7D5CF4E505109F1CFEF924B
:10065000FF921F93CF93DF9314E0E82EF12CC8E0B4
:1006600082E00E946600C150D9F7D0E0C0E0C70127
:100670000C2E02C0959587950A94E2F781700E942E
:1006800066002196C430D10591F783E00E94660090
:10069000115029F7DF91CF911F91FF90EF900895AE
:1006A000CF93DF9390E0FC01E057FF4F24918458F3
:1006B0009F4FFC0184918823D1F090E0880F991F0F
:1006C000FC01EE58FF4FA591B491FC01E859FF4F92
:1006D000C591D49161110EC09FB7F8948C91E22F0F
:1006E000E0958E238C932881E223E8839FBFDF91DE
:1006F000CF9108958FB7F894EC91E22BEC938FBFD4
:10070000F6CF3FB7F8948091050190910601A09132
:100710000701B091080126B5A89B05C02F3F19F02D
:100720000196A11DB11D3FBFBA2FA92F982F882771
:10073000BC01CD01620F711D811D911D42E0660F4C
:10074000771F881F991F4A95D1F708958F929F921E
:10075000AF92BF92CF92DF92EF92FF920E948103FD
:100760004B015C018CE2C82EDD24D394E12CF12CEA
:100770000E948103681979098A099B09683E7340C0
:1007800081059105A8F321E0C21AD108E108F1081A
:1007900088EE880E83E0981EA11CB11CC114D10400
:1007A000E104F10429F7FF90EF90DF90CF90BF9024
:1007B000AF909F908F9008951F920F920FB60F9257
:1007C00011242F933F938F939F93AF93BF93809167
:1007D000010190910201A0910301B09104013091B7
:1007E000000123E0230F2D3758F50196A11DB11DFF
:1007F000209300018093010190930201A0930301D3
:10080000B09304018091050190910601A091070128
:10081000B09108010196A11DB11D8093050190932F
:100820000601A0930701B0930801BF91AF919F917A
:100830008F913F912F910F900FBE0F901F901895A1
:1008400026E8230F0296A11DB11DD2CF789484B55E
:10085000826084BD84B5816084BD85B5826085BDBC
:1008600085B5816085BD80916E00816080936E004A
:10087000109281008091810082608093810080913C
:1008800081008160809381008091800081608093ED
:1008900080008091B10084608093B1008091B000AD
:1008A00081608093B00080917A00846080937A00A8
:1008B00080917A00826080937A0080917A008160D2
:1008C00080937A0080917A00806880937A001092F9
:1008D000C1008CE080930A0182E080930B0186E0E6
:1008E00080930C0183E080930D0184E080930E01DE
:1008F00085E080930F0161E08CE00E94500361E08D
:1009000080910B010E94500360E080910C010E94D5
:10091000500360E080910D010E94500360E08091DF
:100920000E010E94500360E080910F010E9450036D
:10093000C0E0D0E081E00E9427030E94A60382E08D
:100940000E9427030E94A60384E00E9427030E94BE
:10095000A60388E00E9427030E94A603209751F374
:0A0960000E940000E7CFF894FFCFDB
:00000001FF
