:100000000C9461000C9473000C9473000C947300B6
:100010000C9473000C9473000C9473000C94730094
:100020000C9473000C9473000C9473000C94730084
:100030000C9473000C9473000C9473000C94730074
:100040000C94B9030C9473000C9473000C9473001B
:100050000C9473000C9473000C9473000C94730054
:100060000C9473000C94730000000000250028001D
:100070002B0000000000240027002A0000000000E0
:1000800023002600290004040404040404040202DA
:100090000202020203030303030301020408102007
:1000A0004080010204081020010204081020000012
:1000B0000008000201000003040700000000000027
:1000C000000011241FBECFEFD8E0DEBFCDBF21E07E
:1000D000A0E0B1E001C01D92A231B207E1F70E9499
:1000E00003040C94F6040C940000CF92DF92EF927C
:1000F000FF920F931F9390910B01292F30E08230D4
:1001000009F4AEC1833009F442C2813009F4ECC075
:10011000EBE2F0E0983040F088EF890FE5E2F0E0A4
:10012000863010F0E8E2F0E01081983008F08CC0E2
:1001300041E050E060E070E06A017B0104C0CC0C5B
:10014000DD1CEE1CFF1C9A95D2F7C601812B808323
:100150008BE495E00197F1F720910B01EBE2F0E0E1
:10016000283040F088EF820FE5E2F0E0863010F0B2
:10017000E8E2F0E03081422F50E0283008F078C00B
:1001800081E090E0A0E0B0E004C0880F991FAA1FB2
:10019000BB1F2A95D2F78095832380838BEE9FE047
:1001A0000197F1F720910B01EBE2F0E0283040F0ED
:1001B00088EF820FE5E2F0E0863010F0E8E2F0E050
:1001C0003081422F50E0283008F066C081E090E096
:1001D000A0E0B0E004C0880F991FAA1FBB1F2A959A
:1001E000D2F7832B80838BE495E00197F1F7209180
:1001F0000B01EBE2F0E0283040F088EF820FE5E2FF
:10020000F0E0863010F0E8E2F0E03081422F50E07C
:10021000283008F055C081E090E0A0E0B0E004C0D4
:10022000880F991FAA1FBB1F2A95D2F78095832399
:1002300080838BEE9FE00197F1F71F910F91FF9064
:10024000EF90DF90CF9008959850963070F428503A
:10025000310981E090E0A0E0B0E004C0880F991F70
:10026000AA1FBB1F2A95D2F771CF2E503109F1CFAB
:100270002850263070F44850510981E090E0A0E009
:10028000B0E004C0880F991FAA1FBB1F4A95D2F780
:1002900082CF4E505109F1CF2850263070F448508B
:1002A000510981E090E0A0E0B0E004C0880F991F00
:1002B000AA1FBB1F4A95D2F794CF4E505109F1CFD8
:1002C0002850263070F44850510981E090E0A0E0B9
:1002D000B0E004C0880F991FAA1FBB1F4A95D2F730
:1002E000A5CF4E505109F1CFEBE2F0E0983040F04D
:1002F00088EF890FE5E2F0E0863010F0E8E2F0E008
:100300001081983008F084C041E050E060E070E077
:100310006A017B0104C0CC0CDD1CEE1CFF1C9A950D
:10032000D2F7C601812B80838BEE9FE00197F1F716
:1003300020910B01EBE2F0E0283040F088EF820FD3
:10034000E5E2F0E0863010F0E8E2F0E03081422FA4
:1003500050E0283008F070C081E090E0A0E0B0E00C
:1003600004C0880F991FAA1FBB1F2A95D2F780953A
:10037000832380838BE495E00197F1F720910B01B3
:10038000EBE2F0E0283040F088EF820FE5E2F0E0A9
:10039000863010F0E8E2F0E03081422F50E0283063
:1003A00008F0CDC081E090E0A0E0B0E004C0880F8C
:1003B000991FAA1FBB1F2A95D2F7832B80838BEE30
:1003C0009FE00197F1F720910B01EBE2F0E028307C
:1003D00040F088EF820FE5E2F0E0863010F0E8E2CE
:1003E000F0E03081422F50E0283008F0BCC081E0BE
:1003F00090E0A0E0B0E004C0880F991FAA1FBB1FC7
:100400002A95D2F78095832380838BE495E013CFE0
:100410009850963070F42850310981E090E0A0E0C7
:10042000B0E004C0880F991FAA1FBB1F2A95D2F7FE
:1004300079CF2E503109F1CF2850263070F4485032
:10044000510981E090E0A0E0B0E004C0880F991F5E
:10045000AA1FBB1F4A95D2F78ACF4E505109F1CF40
:10046000EBE2F0E0983040F088EF890FE5E2F0E051
:10047000863010F0E8E2F0E010819830C0F541E0FD
:1004800050E060E070E06A017B0104C0CC0CDD1C30
:10049000EE1CFF1C9A95D2F7C601812B80838BE45A
:1004A00095E00197F1F720910B01EBE2F0E02830A5
:1004B00040F088EF820FE5E2F0E0863010F0E8E2ED
:1004C000F0E03081422F50E0283028F581E090E0C4
:1004D000A0E0B0E004C0880F991FAA1FBB1F2A9597
:1004E000D2F78095832380838BEE9FE045CF985091
:1004F000963070F42850310981E090E0A0E0B0E03F
:1005000004C0880F991FAA1FBB1F2A95D2F7C5CF19
:100510002E503109F1CF2850263070F4485051093F
:1005200081E090E0A0E0B0E004C0880F991FAA1F0E
:10053000BB1F4A95D2F7D5CF4E505109F1CF285065
:10054000263070F44850510981E090E0A0E0B0E01E
:1005500004C0880F991FAA1FBB1F4A95D2F72DCF41
:100560004E505109F1CF2850263070F448505109AF
:1005700081E090E0A0E0B0E004C0880F991FAA1FBE
:10058000BB1F4A95D2F73ECF4E505109F1CFEBE257
:10059000F0E0983040F088EF890FE5E2F0E0863037
:1005A00010F0E8E2F0E040819830C0F501E010E0A2
:1005B00020E030E06801790104C0CC0CDD1CEE1CA9
:1005C000FF1C9A95D2F7C601842B80838BE495E0BB
:1005D0000197F1F720910B01EBE2F0E0283040F0B9
:1005E00088EF820FE5E2F0E0863010F0E8E2F0E01C
:1005F0003081422F50E0283028F581E090E0A0E0E3
:10060000B0E004C0880F991FAA1FBB1F2A95D2F71C
:100610008095832380838BEF99EA0DCE9850963096
:1006200070F42850310981E090E0A0E0B0E004C00F
:10063000880F991FAA1FBB1F2A95D2F7C5CF2E502E
:100640003109F1CF2850263070F44850510981E02B
:1006500090E0A0E0B0E004C0880F991FAA1FBB1F64
:100660004A95D2F7D5CF4E505109F1CF833081F062
:1006700028F4813099F08230A9F008958730A9F0EC
:100680008830C9F08430B1F4809180008F7D03C040
:10069000809180008F7780938000089584B58F7754
:1006A00084BD089584B58F7DFBCF8091B0008F7796
:1006B0008093B00008958091B0008F7DF9CFCF93E3
:1006C000DF93282F30E0F901E255FF4F8491F901C3
:1006D000E656FF4FD491F901EA57FF4FC491CC235E
:1006E000A1F081110E943603EC2FF0E0EE0FFF1F06
:1006F000E458FF4FA591B491EC91ED2381E090E097
:1007000009F480E0DF91CF91089580E090E0FACF86
:10071000CF93DF9390E0FC01E656FF4F24918A5778
:100720009F4FFC0184918823D1F090E0880F991F9E
:10073000FC01EE58FF4FA591B491FC01E859FF4F21
:10074000C591D49161110EC09FB7F8948C91E22F9E
:10075000E0958E238C932881E223E8839FBFDF916D
:10076000CF9108958FB7F894EC91E22BEC938FBF63
:10077000F6CF1F920F920FB60F9211242F933F9333
:100780008F939F93AF93BF93809105019091060142
:10079000A0910701B09108013091040123E0230FDB
:1007A0002D3758F50196A11DB11D209304018093AA
:1007B000050190930601A0930701B0930801809171
:1007C000000190910101A0910201B09103010196F5
:1007D000A11DB11D8093000190930101A09302011E
:1007E000B0930301BF91AF919F918F913F912F9152
:1007F0000F900FBE0F901F90189526E8230F0296BA
:10080000A11DB11DD2CF789484B5826084BD84B51A
:10081000816084BD85B5826085BD85B5816085BDFB
:1008200080916E00816080936E00109281008091B3
:10083000810082608093810080918100816080933B
:100840008100809180008160809380008091B10060
:1008500084608093B1008091B00081608093B0008B
:1008600080917A00846080937A0080917A0082601F
:1008700080937A0080917A00816080937A008091E1
:100880007A00806880937A001092C1008CE0809397
:100890000A0187E080930B0183E080930C0184E0E0
:1008A00080930D0185E080930E0186E080930F0117
:1008B00061E08CE00E94880361E080910B010E945E
:1008C000880360E080910C010E94880360E08091C1
:1008D0000D010E94880360E080910E010E94880350
:1008E00060E080910F010E94880320910A0130E0AE
:1008F000F901E255FF4F8491F901E656FF4FD4917B
:10090000F901EA57FF4FC491CC2389F081110E946D
:100910003603EC2FF0E0EE0FFF1FE859FF4FA591D3
:10092000B4918FB7F894EC91DE2BDC938FBF90E0FD
:10093000C92E90E0D92E1092110180910C010E94D5
:100940005F03892B29F480911101885F8093110145
:1009500080910D010E945F03892B29F48091110180
:100960008C5F8093110180910E010E945F03892B9F
:1009700029F4809111018E5F8093110180910F0104
:100980000E945F03892B29F4809111018F5F80936E
:100990001101C0911101CC2301F184E0F82ED0E0C7
:1009A00018E082E00E9475001150D9F710E000E0D5
:1009B000CE01002E02C0959587950A94E2F78170CA
:1009C0000E9475000F5F1F4F0430110589F783E007
:1009D0000E947500FA94F110E3CF10921101C11436
:1009E000D10409F4A8CF0E940000A5CFF894FFCF4E
:00000001FF
