:100000000C9452000C9464000C9464000C946400F2
:100010000C9464000C9464000C9464000C946400D0
:100020000C9464000C9464000C9464000C946400C0
:100030000C9464000C9464000C9464000C946400B0
:100040000C94BC000C9464000C9464000C94640048
:100050000C9464000C9464000C9464000C94640090
:100060000C9464000C94640000000000250028003B
:100070002B0000000000240027002A0004040404D0
:100080000404040402020202020203030303030342
:10009000010204081020408001020408102001021F
:1000A0000408102011241FBECFEFD8E0DEBFCDBF63
:1000B00021E0A0E0B1E001C01D92A231B207E1F75A
:1000C0000E9406010C94D8030C940000CF93DF9398
:1000D00090E0FC01E057FF4F249184589F4FFC01B2
:1000E00084918823D1F090E0880F991FFC01EE588D
:1000F000FF4FA591B491FC01E859FF4FC591D491F0
:1001000061110EC09FB7F8948C91E22FE0958E2379
:100110008C932881E223E8839FBFDF91CF910895DC
:100120008FB7F894EC91E22BEC938FBFF6CF3FB7EB
:10013000F89480910E0190910F01A0911001B0915F
:10014000110126B5A89B05C02F3F19F00196A11DEE
:10015000B11D3FBFBA2FA92F982F8827BC01CD0111
:10016000620F711D811D911D42E0660F771F881F70
:10017000991F4A95D1F708951F920F920FB60F92CB
:1001800011242F933F938F939F93AF93BF938091AD
:100190000A0190910B01A0910C01B0910D013091D9
:1001A000090123E0230F2D3758F50196A11DB11D3C
:1001B0002093090180930A0190930B01A0930C01F5
:1001C000B0930D0180910E0190910F01A09110014B
:1001D000B09111010196A11DB11D80930E01909364
:1001E0000F01A0931001B0931101BF91AF919F91A6
:1001F0008F913F912F910F900FBE0F901F901895E8
:1002000026E8230F0296A11DB11DD2CF789484B5A4
:10021000826084BD84B5816084BD85B5826085BD02
:1002200085B5816085BD80916E00816080936E0090
:100230001092810080918100826080938100809182
:100240008100816080938100809180008160809333
:1002500080008091B10084608093B1008091B000F3
:1002600081608093B00080917A00846080937A00EE
:1002700080917A00826080937A0080917A00816018
:1002800080937A0080917A00806880937A0010923F
:10029000C1008CE0809301018AE08093020182E03A
:1002A0008093030183E08093040184E0809305013F
:1002B00085E08093060161E08CE00E94660061E0C9
:1002C000809102010E94660060E0809103010E941B
:1002D000660060E0809104010E94660060E0809109
:1002E00005010E94660060E0809106010E946600A0
:1002F000C12CD12C7601C39400E110E0CBE3D6E011
:1003000064E02BEB32E14BEF57EC78E08091020197
:10031000EBE2F0E0883040F098EF980FE5E2F0E093
:10032000963010F0E8E2F0E0B080A82FB0E088301E
:1003300008F02EC13601470104C0660C771C881CEA
:10034000991C8A95D2F7C3018B298083CE0101972E
:10035000F1F780910201EBE2F0E0883040F098EF95
:10036000980FE5E2F0E0963010F0E8E2F0E0B080BF
:10037000A82FB0E0883008F01BC13601470104C047
:10038000660C771C881C991C8A95D2F7C30180954E
:100390008B218083C9010197F1F780910201EBE283
:1003A000F0E0883040F098EF980FE5E2F0E096300A
:1003B00010F0E8E2F0E0B080A82FB0E0883008F05C
:1003C00007C13601470104C0660C771C881C991CC4
:1003D0008A95D2F7C3018B298083C9010197F1F770
:1003E00080910201EBE2F0E0883040F098EF980F46
:1003F000E5E2F0E0963010F0E8E2F0E0B080A82FFF
:10040000B0E0883008F0F4C03601470104C0660C43
:10041000771C881C991C8A95D2F7C30180958B2183
:100420008083CE010197F1F7715009F06FCF74E02E
:1004300080910201EBE2F0E0883040F098EF980FF5
:10044000E5E2F0E0963010F0E8E2F0E0B080A82FAE
:10045000B0E0883008F0DCC03601470104C0660C0B
:10046000771C881C991C8A95D2F7C3018B2980833D
:10047000CE010197F1F780910201EBE2F0E08830C4
:1004800040F098EF980FE5E2F0E0963010F0E8E2E7
:10049000F0E0B080A82FB0E0883008F0C9C0360185
:1004A000470104C0660C771C881C991C8A95D2F7FA
:1004B000C30180958B218083C9010197F1F7809159
:1004C0000201EBE2F0E0883040F098EF980FE5E2AF
:1004D000F0E0963010F0E8E2F0E0B080A82FB0E055
:1004E000883008F0B5C03601470104C0660C771C9F
:1004F000881C991C8A95D2F7C3018B298083C90176
:100500000197F1F780910201EBE2F0E0883040F0D2
:1005100098EF980FE5E2F0E0963010F0E8E2F0E0B6
:10052000B080A82FB0E0883008F0A2C036014701A3
:1005300004C0660C771C881C991C8A95D2F7C301ED
:1005400080958B218083CE010197F1F7715009F0DE
:100550006FCFA0910201EBE2F0E0A83040F088EF0D
:100560008A0FE5E2F0E0863010F0E8E2F0E070811A
:100570008A2F90E0A83008F08BC04601570104C0D4
:10058000880C991CAA1CBB1CAA95D2F7C4018EC06A
:100590008850863058F418973601470104C0660C1D
:1005A000771C881C991CAA95D2F7CDCE1E97F4CF44
:1005B0008850863058F418973601470104C0660CFD
:1005C000771C881C991CAA95D2F7E0CE1E97F4CF11
:1005D0008850863058F418973601470104C0660CDD
:1005E000771C881C991CAA95D2F7F4CE1E97F4CFDD
:1005F0008850863058F418973601470104C0660CBD
:10060000771C881C991CAA95D2F707CF1E97F4CFA8
:100610008850863058F418973601470104C0660C9C
:10062000771C881C991CAA95D2F71FCF1E97F4CF70
:100630008850863058F418973601470104C0660C7C
:10064000771C881C991CAA95D2F732CF1E97F4CF3D
:100650008850863058F418973601470104C0660C5C
:10066000771C881C991CAA95D2F746CF1E97F4CF09
:100670008850863058F418973601470104C0660C3C
:10068000771C881C991CAA95D2F759CF1E97F4CFD6
:10069000A850A63070F508973601470104C0660CD3
:1006A000771C881C991C8A95D2F7C301872B8083FD
:1006B000CE010197F1F7A0910201EBE2F0E0A83042
:1006C00040F088EF8A0FE5E2F0E0863010F0E8E2D3
:1006D000F0E070818A2F90E0A830B0F43601470135
:1006E00004C0660C771C881C991CAA95D2F7C3011C
:1006F0001AC00E974601570104C0880C991CAA1C09
:10070000BB1C8A95D2F742CFA850A63008F045C04E
:1007100008974601570104C0880C991CAA1CBB1CF1
:100720008A95D2F7C401809587238083CA010197F7
:10073000F1F7615009F0E9CD0E9497002B013C01CF
:1007400088EE882E83E0982EA12CB12C0E94970071
:100750006419750986099709683E734081059105FA
:10076000A8F321E0821A9108A108B10888EE480E8A
:1007700083E0581E611C711C81149104A104B10412
:1007800029F70150110909F0BBCD80E090E0892BD9
:1007900009F4B2CD0E940000AFCD0E97360147019B
:1007A00004C0660C771C881C991C8A95D2F79FCFD1
:0407B000F894FFCFEB
:00000001FF
